:020000040000FA
:100000000C94B4010C94DC010C94DC010C94DC0124
:100010000C94DC010C94DC010C94DC010C94DC01EC
:100020000C94DC010C94DC010C942F080C949E08B9
:100030000C94DC010C94DC010C94DC010C94DC01CC
:100040000C94DC010C94DC010C94DC010C94DC01BC
:100050000C94DC010C94DC010C94DC010C94E5079D
:100060000C94DC010C94F60A0C94D00A0C94DC017C
:100070000C94DC010C94DC010C94DC010C94DC018C
:100080000C94DC010C94DC010C94DC010C94DC017C
:100090000C94DC010C94DC010C94DC010C94DC016C
:1000A0000C94DC010C94DC010C94DC0170696E642E
:1000B0006967006E766D00687765756900766464BF
:1000C000007665720067657400736574006661632D
:1000D000746F727952455345540065726173654679
:1000E0005700726573657400736C65657000737991
:1000F0007300756E636E6600636E66007374617480
:100100007573006672657100647272616E67650076
:10011000646379636C6500616270006F7461610093
:10012000646E6374720075706374720073746174CA
:10013000757300636C617373006D72676E0067772F
:100140006E62006368007278320061720062616EF4
:100150006400727864656C61793200727864656CF1
:10016000617931006C696E6B63686B0072657478DD
:100170000062617400616472006472007077726979
:100180006478006170706B657900617070736B6585
:1001900079006E776B736B65790061707065756956
:1001A00000646576657569006465766164647200F3
:1001B0006765740073657400726573756D650070B2
:1001C0006175736500666F726365454E41424C45CB
:1001D0000073617665006A6F696E007478007265FD
:1001E000736574006D616300524E32343833006DB4
:1001F00061635F657272006D61635F7278006D614B
:10020000635F74785F6F6B006163636570746564CE
:10021000006F6666006F6E006F6B00080B000202D5
:100220000200000904000001020200000524001081
:10023000010524010101042402060524060001072A
:1002400005810310004009040100020A00000007B4
:100250000502024000000705830240000004030974
:100260000412010002EF0201404F1B049200010141
:10027000020301537061726B46756E0053706172B8
:100280006B46756E2050726F204D6963726F00006F
:10029000000000250028002B002E00310000000087
:1002A00000240027002A002D003000040404040468
:1002B0000304050202020204030202020206060609
:1002C00006060604040202020404040802011040A7
:1002D00080401020408040800802040180402010AF
:1002E000020110801020404020EE00E800E200DA19
:1002F00000CD00C900C500C100BD00B700B300AC0F
:1003000000F800F200100108010301FC001B0117B6
:1003100001A801A1019A0192018A0183017C01795E
:1003200001750171016C0164015B0152014D014ACB
:1003300001460143013E01390133012C0126012010
:1003400001E401DE01DB01D601D101C501BF01B825
:1003500001B401B0011802150211020802FE01F7F2
:1003600001EF01E80100280B11241FBECFEFDAE0F6
:10037000DEBFCDBF24E0A8E9B1E001C01D92A33BE0
:10038000B207E1F711E0A0E0B1E0EEEAF2E202C06C
:1003900005900D92A839B107D9F711E0C4EBD1E06F
:1003A00004C02197FE010E94A10EC33BD107C9F7EB
:1003B0000E948C0B0C9455110C9400008091A402A7
:1003C0009091A502DC01ED91FC910084F185E02D76
:1003D0000995892B61F08091A4029091A502DC011E
:1003E000ED91FC910284F385E02D0995E7CF089506
:1003F000FC018091B601882311F13FB7F89482E0A7
:100400008093E9002091F200822F90E018161906DF
:1004100014F481E090E0882339F0289844E6409372
:10042000B5014091F1004083222339F02091F20080
:10043000211103C02BE62093E8003FBF08958FEF02
:100440009FEF08952FB7F89483E08093E90090918F
:10045000E800892F807295FF04C09091F20080E43B
:10046000891B2FBF08958091AD0181110DC082E0DD
:100470008093A90184E08093AA011092AC011092AC
:10048000AB0181E08093AD0189EA91E008953FB727
:10049000F8948091A5019091A601A091A701B09137
:1004A000A80126B5A89B05C02F3F19F00196A11DF4
:1004B000B11D3FBFBA2FA92F982F8827BC01CD01AE
:1004C000620F711D811D911D43E0660F771F881F0C
:1004D000991F4A95D1F708958F929F92AF92BF923C
:1004E000CF92DF92EF92FF924B015C010E94470294
:1004F0006B017C010E9447026C197D098E099F09DE
:10050000683E734081059105A8F321E0821A9108A5
:10051000A108B10888EEC80E83E0D81EE11CF11CCA
:1005200081149104A104B10429F7FF90EF90DF90AA
:10053000CF90BF90AF909F908F90089540919A0177
:1005400050919B01209198013091990142175307D6
:10055000B4F49091E8009570E1F39091E80092FD79
:1005600019C08093F10080919A0190919B010196AE
:100570008F739927892B19F48EEF8093E80080916F
:100580009A0190919B01019690939B0180939A010F
:1005900081E0089580E00895EF92FF920F931F93FA
:1005A000CF93DF93F82E192FE62E042F81E0860FCC
:1005B000880F0E949E0283E00E949E02CF2DD12FC1
:1005C000EC0EFD2EF11CCE15DF05B9F007FF13C0B0
:1005D000FE0184910E949E02182F80E00E949E02DC
:1005E000812321968111EFCFDF91CF911F910F9140
:1005F000FF90EF9008958881EDCF81E0F5CFDF92F5
:10060000EF92FF920F931F93CF93DF93D82E8A011F
:10061000EB017B01E40EF51ECE15DF0559F0D7FE88
:1006200012C0FE0184910E949E0221968111F4CF96
:100630000FEF1FEFC801DF91CF911F910F91FF9036
:10064000EF90DF9008958881EECF0F931F93CF93A3
:10065000DF931F92CDB7DEB782E0898342E450E09A
:100660006BE172E080E80E94FF020E943302DC012D
:1006700012960D911C910115110589F0D801ED918B
:10068000FC910280F381E02DBE016F5F7F4FC801B6
:10069000099597FD04C0F80100851185ECCF89818B
:1006A0000F90DF91CF911F910F910895615030F01D
:1006B0002091F100FC0120830196F8CF289884E670
:1006C0008093B5010895CF93DF93EC012FB7F89491
:1006D0008091A1019091A201A091A301B091A401E8
:1006E0002FBF88879987AA87BB87E881F981028411
:1006F000F385E02DCE01099597FF1EC02FB7F89422
:100700008091A1019091A201A091A301B091A401B7
:100710002FBF488559856A857B85841B950BA60B61
:10072000B70B4C815D816E817F8184179507A60789
:10073000B707D8F28FEF9FEFDF91CF910895AF9277
:10074000BF92CF92DF92FF920F931F93CF93DF93CD
:100750008C0184E0F82EFA94FF2001F1A090A4020D
:10076000B090A5026801D0E0C0E0C5010E9463031B
:1007700097FD0CC08A30910549F0F60181936F0115
:100780002196C115F2E0DF0781F702C0209719F327
:100790000C0F1D1FF8013197108205C081E0809376
:1007A000B004D0E0C0E0CE01DF91CF911F910F9156
:1007B000FF90DF90CF90BF90AF900895AF92BF921F
:1007C000CF92DF92EF92FF920F931F93CF93DF931D
:1007D0006C017B018B01040F151FEB015E01AE184C
:1007E000BF08C017D10759F06991D601ED91FC916E
:1007F0000190F081E02DC6010995892B79F7C5019B
:10080000DF91CF911F910F91FF90EF90DF90CF90EC
:10081000BF90AF900895FC01538D448D252F30E09B
:10082000842F90E0821B930B541710F0CF960895FD
:1008300001970895FC01918D828D981761F0A28D2A
:10084000AE0FBF2FB11D5D968C91928D9F5F9F73F0
:10085000928F90E008958FEF9FEF0895FC01918DA6
:10086000828D981731F0828DE80FF11D858D90E013
:1008700008958FEF9FEF0895FC01918D228D892FB0
:1008800090E0805C9F4F821B91098F739927089598
:1008900087E092E00E943C0421E0892B09F420E0EB
:1008A000822F089580E090E0892B29F00E9448046F
:1008B00081110C9400000895FC01A48DA80FB92F9C
:1008C000B11DA35ABF4F2C91848D90E001968F7378
:1008D0009927848FA689B7892C93A089B1898C9197
:1008E00082748C93938D848D981306C00288F3894B
:1008F000E02D80818F7D80830895EF92FF920F938A
:100900001F93CF93DF93EC0181E0888F9B8D8C8DBB
:10091000981319C0E889F989808185FF14C09FB7B1
:10092000F894EE89FF896083E889F989808182746F
:1009300080839FBF81E090E0DF91CF911F910F9165
:10094000FF90EF900895F62E0B8D10E00F5F1F4F74
:100950000F731127E02E8C8D8E110CC00FB607FC83
:10096000FACFE889F989808185FFF5CFCE010E9411
:100970005C04F1CFEB8DEC0FFD2FF11DE35AFF4F1F
:10098000F0829FB7F8940B8FEA89FB89808180629F
:10099000CFCFCF93DF93EC01888D8823B9F0AA895C
:1009A000BB89E889F9898C9185FD03C0808186FD2A
:1009B0000DC00FB607FCF7CF8C9185FFF2CF808179
:1009C00085FFEDCFCE010E945C04E9CFDF91CF918E
:1009D00008958F929F92AF92BF92CF92DF92EF9243
:1009E000FF920F931F93CF93DF936C017B018A01DA
:1009F00080910B01882309F45CC08091B6018823A3
:100A000009F457C080919E0180FF05C08091E000ED
:100A100082608093E000E801B12C8AEFA82E93E079
:100A2000892E2AE3922E209711F4BB20D9F10E943F
:100A3000220281110AC0AA94AA20D9F161E070E0D3
:100A400080E090E00E946C02EECF8C171D0611F042
:100A50000CF08C2F9FB7F8948092E9002091E80069
:100A600025FD02C09FBFDFCF282F30E0C21BD30B74
:100A7000F701815020F041914093F100FACFE20E4E
:100A8000F31EBB2021F09092E800B12CEBCF8091B7
:100A9000E80085FDE7CF9092E800BB24B39420974F
:100AA00009F3F3CF5D9884E680939D01101611063B
:100AB0003CF081E090E0F6019383828310E000E057
:100AC000C801DF91CF911F910F91FF90EF90DF90C0
:100AD000CF90BF90AF909F908F900895CF93DF936A
:100AE0001F92CDB7DEB76983DC01ED91FC910280E6
:100AF000F381E02D41E050E0BE016F5F7F4F09952B
:100B00000F90DF91CF91089583E08093E900809169
:100B1000F200882319F08AE38093E80008950E9488
:100B2000220290E00895CF93DF931F92CDB7DEB7F6
:100B3000FC018485958597FD08C02FEF3FEF358731
:100B400024870F90DF91CF910895CE0101960E94E6
:100B5000F801019719F4898190E0F3CF8FEF9FEFAF
:100B6000F0CF0F931F93CF93DF931F92CDB7DEB7D4
:100B70008C01FC018485958597FF0BC0CE01019601
:100B80000E94F801019771F4898190E0F80195873E
:100B90008487F801848595850F90DF91CF911F910F
:100BA0000F9108958FEF9FEFF1CFFC01848595851C
:100BB00097FD0BC09FB7F89482E08093E900809185
:100BC000F2009FBF90E0019608959FB7F89482E0ED
:100BD0008093E9008091F2009FBF90E00895FB01AF
:100BE00001900020E9F73197AF01461B570BDC015C
:100BF000ED91FC910280F381E02D0994611571055E
:100C000011F00C94EF0590E080E008951F93CF93CE
:100C1000DF93CDB7DEB7C456D1090FB6F894DEBF67
:100C20000FBECDBF142FE62FF0E0EE0FFF1F833075
:100C3000C1F150F5813079F1823081F1EF5BFC4FE9
:100C400065917491CE0101960E94370EBE016F5FCF
:100C50007F4F8091A4029091A5020E94FE0511236E
:100C600041F067E371E08091A4029091A5020E9497
:100C7000FE05CC59DF4F0FB6F894DEBF0FBECDBFD7
:100C8000DF91CF911F910895843071F08530B1F6D6
:100C9000E751FD4FD5CFEF5EFC4FD2CFE35FFC4F66
:100CA000CFCFEB5FFC4FCCCFEF5FFC4FC9CFFF92B4
:100CB0000F931F93CF93DF93F82E162F042FE90184
:100CC0000E94DE0141E060E08F2D0E94060641E0B7
:100CD00069E080E00E94060640E0602F812F0E94BC
:100CE000060669E371E08091A4029091A5020E943A
:100CF000FE05CE01DF91CF911F910F91FF900C94D3
:100D00009F03CF92DF92EF92FF921F93CF93DF93D7
:100D1000E091A402F091A50280ED97E0A0E0B0E0A0
:100D200084839583A683B7831BE0D0E0C0E0115095
:100D300064E670E080E090E009F456C0209709F086
:100D400053C00E946C028091A4029091A502DC0124
:100D5000ED91FC910190F081E02D60E0099580918A
:100D6000A4029091A502DC01ED91FC910190F0812B
:100D7000E02D65E5099569E371E08091A402909109
:100D8000A5020E94FE0541E060E085E00E940606A3
:100D900041E066E085E00E94060640E067E085E00D
:100DA0000E94060669E371E08091A4029091A50279
:100DB0000E94FE05C090A402D090A5028BEAE82E06
:100DC00082E0F82EC6010E94630397FDB0CF8A30FF
:100DD000910509F4ACCFF70181937F012196C115EC
:100DE000F2E0DF0779F7A3CF0E946C020E94DE01D8
:100DF000E091A402F091A50280E197E2A0E0B0E0CA
:100E000084839583A683B78381E08093AB04DF91CD
:100E1000CF911F91FF90EF90DF90CF900895EF92C8
:100E2000FF920F931F93CF93DF93CDB7DEB7C058D8
:100E3000D1090FB6F894DEBF0FBECDBFFC012081F3
:100E40002223A1F18C01E62FF0E0EE0FFF1FEB5AF9
:100E5000FC4F65917491CE0101967C010E94370E82
:100E6000F80101900020E9F7AF0141505109F70165
:100E700001900020E9F73197EE19FF09401B510B53
:100E8000E417F50708F4AF01B701C8010E94A70EE7
:100E9000C058DF4F0FB6F894DEBF0FBECDBFDF9155
:100EA000CF911F910F91FF90EF9008958FEF9FEFDB
:100EB000EFCF8BEA92E00E949F0360E08BEA92E022
:100EC0000E940F0721E0892B09F020E0822F08956E
:100ED0000F931F93CF93DF93C82F8B010E94DE01E6
:100EE00041E060E080E00E94060641E068E080E0CA
:100EF0000E94060641E06C2F81E00E940606C4EACB
:100F0000D2E0B801888199810E94FE0569E371E011
:100F1000888199810E94FE05DF91CF911F910F91E9
:100F20000C945907EF92FF920F931F93CF93DF9387
:100F300000D000D01F92CDB7DEB7082F162F7A0150
:100F40000E94DE01105D19831A8241E060E080E0BA
:100F50000E94060641E068E080E00E94060641E04B
:100F600061E181E00E94060641E0602F83E00E947B
:100F7000060604EA12E0BE016F5F7F4FF801808130
:100F800091810E94FE0567E371E0F8018081918103
:100F90000E94FE05B701F801808191810E94FE0543
:100FA00069E371E0F801808191810E94FE050E9451
:100FB00059070F900F900F900F900F90DF91CF91E6
:100FC0001F910F91FF90EF9008951F920F920FB60F
:100FD0000F9211242F933F938F939F93AF93BF93BF
:100FE0008091A1019091A201A091A301B091A401CF
:100FF0003091A00126E0230F2D3758F50296A11D50
:10100000B11D2093A0018093A1019093A201A09310
:10101000A301B093A4018091A5019091A601A09194
:10102000A701B091A8010196A11DB11D8093A50152
:101030009093A601A093A701B093A801BF91AF918F
:101040009F918F913F912F910F900FBE0F901F9006
:10105000189529E8230F0396A11DB11DD2CF1F9229
:101060000F920FB60F9211248F939F938091E100FE
:101070009091E100937F9093E10083FF0FC0109265
:10108000E90091E09093EB001092EC0092E39093D2
:10109000ED001092B60198E09093F00082FF22C01C
:1010A00093E09093E9009091F200992319F09AE36C
:1010B0009093E80090919D01992341F090919D01BA
:1010C000915090939D01911101C05D9A9091B5014D
:1010D000992341F09091B50191509093B5019111F0
:1010E00001C0289A84FF18C08091E2008E7E816042
:1010F0008093E2008091E1008F7E8093E1008091F7
:101100009E018E7E806180939E019F918F910F90B2
:101110000FBE0F901F90189580FFF7CF8091E200CF
:101120008E7E80618093E2008091E1008E7E8093CC
:10113000E10080919E018E7E8160E5CF1F920F922B
:101140000FB60F921124CF92DF92EF92FF920F937E
:101150001F932F933F934F935F936F937F938F933F
:101160009F93AF93BF93EF93FF93CF93DF93CDB74D
:10117000DEB76C97DEBFCDBF1092E9008091E8002A
:1011800083FF25C068E0CE0145960E94560382EF9A
:101190008093E8008D8987FF39C09091E80090FF27
:1011A000FCCF982F907609F034C19E894F89588DD5
:1011B0002F89F88C911131C0803861F580919F01A1
:1011C0008093F1001092F1008EEF8093E8006C960E
:1011D0000FB6F894DEBF0FBECDBFDF91CF91FF9168
:1011E000EF91BF91AF919F918F917F916F915F919F
:1011F0004F913F912F911F910F91FF90EF90DF90B2
:10120000CF900F900FBE0F901F9018959EEF909368
:10121000E800C7CF1092F100D5CF913059F4811179
:10122000D3CF4130510581F680919F018D7F80930E
:101230009F01CACF933049F48111C6CF4130510587
:1012400019F680919F018260F2CF953041F4809130
:10125000E80080FFFCCF20682093E300B5CF9630F4
:1012600009F0A9C00B8D1C8D22E01092E9001092AC
:101270009B0110929A01F2122EC0109299011092C5
:1012800098010E9425031F8299E09983FA8291E0D8
:101290009E8390EA98879AEF998720919A013091DE
:1012A0009B01275F3F4F3C832B838D831092E90086
:1012B00010929B0110929A0110939901009398014A
:1012C00049E050E0BE016F5F7F4F80E00E94FF0267
:1012D0000E94250379CF10939901009398010E94F1
:1012E0003302DC0112960D911C910115110509F4D0
:1012F00051C1D801ED91FC910480F581E02DBE0132
:101300006B5E7F4FC8010995009709F03EC1F80157
:1013100000851185EACFF3E0FF120EC08F89882384
:1013200009F440C0823061F440E862E18CE792E069
:101330000E94CC02811148CF81E28093EB0047CF1D
:10134000813029F440E868E083E792E0F1CF833010
:1013500099F70E943302DC011296ED90FC908E0109
:101360000F5F1F4F6801E114F10479F0D701ED918F
:10137000FC910680F781E02DB801C7010995080F9F
:10138000111DF701E084F184EECFD8011C92F60123
:1013900001900020E9F73197BF016C197D0940E009
:1013A000C601C6CF6DE572E0FB01449150E080E8D4
:1013B0000E94FF0209CF973009F4BECF983021F484
:1013C00081E08093F10000CF993009F0FDCE837069
:1013D00009F0B2CFEDE0F1E081E031E096E3219158
:1013E000222371F08093E9003093EB00DF01119725
:1013F0002C912093EC009093ED008F5F873079F76C
:101400008EE78093EA001092EA008F898093B601FC
:10141000DBCE8B8D9C8D1092E90010929B01109277
:101420009A019093990180939801898D811192C0BE
:101430008E899D89913A49F4813209F07DCF47E048
:1014400050E064E071E080E0B3CF913209F074CFF6
:10145000833269F48F89988DB0E0A0E08093000119
:1014600090930101A0930201B0930301ADCE8032AD
:1014700069F48091E80082FFFCCF67E084E091E0AE
:101480000E9456038BEF8093E8009ECE823209F0D3
:101490009BCE8F8980930B01EEEFFFE785919491AE
:1014A0008B3F9C4D51F1E0E0F8E080910401909178
:1014B0000501A0910601B0910701803B9440A10570
:1014C000B105F1F480910B0180FD1AC0EE3F8AE076
:1014D000F80789F587E797E791838083809160001B
:1014E00080939C0188E19BE00FB6F894A8958093C7
:1014F00060000FBE9093600067CEEEEFFAE0D5CFAC
:10150000808191818737974709F05ECEA8958091B9
:10151000600088618093600080919C0180936000EE
:10152000EE3F2AE0F20789F08091FE0A9091FF0ACF
:101530009183808349CE808191818737980751F2CA
:101540009093FF0A8093FE0AC5CF1092FF0A109273
:10155000FE0A3ACE0E943302DC0112960D911C91D4
:101560000115110509F4E8CED801ED91FC91019027
:10157000F081E02DBE016B5E7F4FC801099581119E
:1015800023CEF80100851185EBCF181619060CF44F
:101590001BCED2CEF1E0FF12BECE61E672E004CFE8
:1015A0001F920F920FB60F9211242F933F934F93D8
:1015B0005F936F937F938F939F93AF93BF93EF93BB
:1015C000FF9387E092E00E945C04FF91EF91BF914E
:1015D000AF919F918F917F916F915F914F913F91CB
:1015E0002F910F900FBE0F901F9018951F920F9282
:1015F0000FB60F9211242F938F939F93EF93FF9326
:10160000E0911702F09118028081E0911D02F091A3
:101610001E0282FD1BC09081809120028F5F8F731C
:1016200020912102821741F0E0912002F0E0E95F71
:10163000FD4F958F80932002FF91EF919F918F91A5
:101640002F910F900FBE0F901F9018958081F4CFAF
:10165000CF93DF93E7E0F2E01382128287E191E01B
:10166000918380838DEC90E0958784878CEC90E06B
:101670009787868788EC90E0918B808B89EC90E04F
:10168000938B828B8AEC90E0958B848B8EEC90E030
:10169000978B868B118E128E138E148EC7EBD1E032
:1016A0001B821A8288EE93E0A0E0B0E08C839D83D9
:1016B000AE83BF8389E291E0998388838FEF9FEFA8
:1016C0009D878C87A4EAB2E01092AB041092AF041D
:1016D0001092AE041092B0041396DC93CE9312973E
:1016E0001196FC93EE9340E157E260E070E0448392
:1016F00055836683778387E014968C93149782E0F2
:1017000015968C93159716961C921092AD04109214
:10171000AC04DF91CF910895CF93DF93CDB7DEB7BF
:1017200065970FB6F894DEBF0FBECDBF789484B531
:10173000826084BD84B5816084BD85B5826085BDCD
:1017400085B5816085BD80916E00816080936E005B
:10175000109281008091810082608093810080914D
:1017600081008160809381008091800081608093FE
:10177000800080919100826080939100809191001F
:1017800081608093910080919000816080939000AF
:101790008091C10084608093C1008091C10082600B
:1017A0008093C1008091C10081608093C1008091CD
:1017B000C30081608093C3008091C00082608093E9
:1017C000C0008091C20081608093C20080917A0045
:1017D000846080937A0080917A00826080937A009E
:1017E00080917A008E7F80937A0080917A00806861
:1017F00080937A001092B60110929F0110929E0180
:101800008091D70081608093D70080EA8093D800D0
:1018100089B58F7E89BD89B5826089BD09B400FE16
:10182000FDCF61E070E080E090E00E946C0280916A
:10183000D8008F7C80618093D8008091E000807F09
:101840008093E0008091E1008E7E8093E1008DE046
:101850008093E200559A209AE0911702F0911802C5
:1018600082E08083E0911302F09114021082E091F3
:101870001502F091160280E1808310921F02E09120
:101880001B02F0911C0286E08083E0911902F09126
:101890001A02808180618083E0911902F0911A021E
:1018A000808188608083E0911902F0911A02808122
:1018B00080688083E0911902F0911A0280818F7D07
:1018C00080838FEF9FEF9093C4018093C301E7ED76
:1018D000F2E02491E8EBF2E08491882399F090E023
:1018E000880F991FFC01E356FD4FA591B491FC01AF
:1018F000E157FD4F859194918FB7F894EC91E22BCD
:10190000EC938FBF10910B016AE070E080E090E0F3
:101910000E946C02111110C02FB7F8948091A101A0
:101920009091A201A091A301B091A4012FBF803199
:101930009742A105B10530F36CE371E087EB91E0CC
:101940000E94EF0569E371E087EB91E00E94EF05EB
:101950002BEA32E049E065E085E00E9457062BEA79
:1019600032E048E065E085E00E9457062BEA32E06D
:1019700042E061E080E00E9457062BEA32E041E05D
:1019800061E080E00E9457062BEA32E047E061E028
:1019900080E00E9457062BEA32E04CE061E080E0F4
:1019A0000E9457062BEA32E04DE061E080E00E94A1
:1019B000570666E471E087EB91E00E94EF0569E36A
:1019C00071E087EB91E00E94EF051091AA020E945E
:1019D00081060E94DE0141E060E085E00E9406068B
:1019E00040E062E085E00E94060669E371E08091D4
:1019F000A4029091A5020E94FE058BEA92E00E944B
:101A00009F030E9481062BEA32E047E065E085E013
:101A10000E94570667E371E08BEA92E00E943E0E57
:101A200067E371E090E080E00E943E0E2BEA32E036
:101A300049E065E085E00E9457066BEA72E081E0CC
:101A40000E9468076EE471E0111102C061E571E067
:101A500088E00E9468071093AA022BEA32E049E06E
:101A600065E085E00E9457066BEA72E081E00E9423
:101A7000680765E571E082E00E94680766E671E04C
:101A800085E00E94680741E060E080E00E94060671
:101A900040E064E080E00E94060669E371E0809126
:101AA000A4029091A5020E94FE058091A602909149
:101AB000A702009721F069E371E00E94EF050E9400
:101AC000590747E851E061E081E00E94920780E613
:101AD000482E85EE582E8EEA682E83E3782E10E08D
:101AE000CE0101966C0101E09BE2992E2BE8E22EDB
:101AF00021E0F22E5E019CE0A90EB11C33EF832E93
:101B0000133008F476C07F926F925F924F92FF92EB
:101B1000EF92BF92AF920E94B40EA501612F82E0B6
:101B20000E9492074FE851E0612F81E00E949207E6
:101B30001F921F920F938F92FF92EF92DF92CF929C
:101B40000E94B40EA601612F80E00E9492074EE42D
:101B500051E0612F83E00E94920720E4420E2DE0C5
:101B6000521E23E0621E711C0FB6F894DEBF0FBE3A
:101B7000CDBF1F5F183021F663E971E086E00E9457
:101B800068079091A8028CE3891B89831A82B601A9
:101B900087E00E9468070E94DE0141E060E080E08B
:101BA0000E94060641E063E080E00E94060640E0F5
:101BB00060E082E00E94060669E371E08091A40281
:101BC0009091A5020E94FE058091A6029091A70225
:101BD000009721F069E371E00E94EF050E94590728
:101BE000811117C060E177E280E090E00E946C0212
:101BF000D2CF1F921F920F939F92FF92EF92DF928C
:101C0000CF920E94B40EA601612F80E00E9492073D
:101C1000ABCF8BEA92E00E949F0363E08BEA92E0F5
:101C20000E940F07892BF1F62BEA32E043E063E0D4
:101C300080E00E9457062BEA32E040E061E080E05D
:101C40000E9457061092AF041092AE0465E971E04D
:101C500084E10E94680700E010E001151105E9F336
:101C60000E9448048823C9F30E940000F6CFFB01BC
:101C7000DC0105900D920020E1F7089541EB54E05E
:101C80000E94430E0895FA01A191B081009719F4C2
:101C90001097E1F0CD01DC01CD010D90002011F491
:101CA000C00113C0FB012191222319F02015D9F79F
:101CB000F3CFFB012191201519F41E92119606C055
:101CC0002223C1F70D900020A1F7D001FA01A193C2
:101CD000B08308952F923F924F925F926F927F92BE
:101CE0008F929F92AF92BF92CF92DF92EF92FF922C
:101CF0000F931F93CF93DF93CDB7DEB7CA1BDB0BD8
:101D00000FB6F894DEBF0FBECDBF09942A8839887C
:101D100048885F846E847D848C849B84AA84B98483
:101D2000C884DF80EE80FD800C811B81AA81B9818F
:101D3000CE0FD11D0FB6F894DEBF0FBECDBFED01A3
:101D40000895EE0FFF1F0590F491E02D0994FB011B
:101D5000DC0104C08D910190801921F44150504064
:101D6000C8F7881B990B0895AEE0B0E0EAEBFEE0FF
:101D70000C94780E0D891E8986E08C831A83098362
:101D80008FEF9FE79E838D83AE01475E5F4F6F8924
:101D9000788DCE0101960E94D70E2F813885020FD3
:101DA000131FF80110822E96E4E00C94940EABE021
:101DB000B0E0EDEDFEE00C946A0E7C013B018A017F
:101DC000FC0117821682838181FFC8C1CE01019672
:101DD0005C01F7019381F30193FD859193FF81915C
:101DE0003F01882309F453C1853239F493FD85916D
:101DF00093FF81913F01853229F4B70190E00E9461
:101E0000C710E7CF912C212C312CFFE1F31538F0CE
:101E10008B3211F190F4803209F1833229F137FCD1
:101E20003CC020ED280F2A3050F536FE20C08AE055
:101E3000989E200D1124922E06C08D3291F0803391
:101E400071F7689430F8F30193FD859193FF8191C8
:101E50003F018111DACF21C0689431F8689432F8DB
:101E6000F2CF689433F8EFCF689434F8ECCFEAE01F
:101E70002E9E200D1124222E689435F8E4CF8E3248
:101E800029F436FC04C1689436F8DDCF8C3619F499
:101E9000689437F8D8CF8836B1F2982F9F7D955443
:101EA0009330E0F08336A1F18337C1F1833509F037
:101EB00063C02801F2E04F0E511CF801C080D180B0
:101EC000692D70E036FC02C06FEF7FEFC6010E9403
:101ED000B1104C01689437F882010AC00C5F1F4FA3
:101EE000FFE3F98388248394912C6501E89437F803
:101EF00033FE2DC0522C8114910471F5552009F444
:101F000068CFB70180E290E00E94C7105A94F6CFE4
:101F1000F801808189830E5F1F4FE4CF2801F2E032
:101F20004F0E511CF801C080D180692D70E036FC45
:101F300002C06FEF7FEFC6010E94BC104C0182010E
:101F4000D5CFB70180E290E00E94C7102A942814F0
:101F5000190409F0B0F7CECFF60137FC859137FEB2
:101F600081916F01B70190E00E94C71051105A94FF
:101F7000F1E08F1A9108BFCF843619F0893609F045
:101F800077C0F80137FE6BC06081718182819381D7
:101F90000C5F1F4FF32DFF763F2E97FF09C09095E2
:101FA0008095709561957F4F8F4F9F4F689437F85C
:101FB0002AE030E0A5010E94F710C82ECA188C2C28
:101FC000432C36FE0CC0E89440F8C91440F434FEAB
:101FD00005C032FC03C0F32DFE7E4F2E892C44FE3B
:101FE00095C0FE01EC0DF11D8081803309F087C0A2
:101FF000242D297E422E842D8870582E43FC95C0B6
:1020000040FE8FC09C2C821418F42C0C922C981833
:1020100044FE91C0B70180E390E00E94C71042FEE9
:1020200009C088E790E041FE02C088E590E0B70172
:102030000E94C710C91408F48AC0CA94D12C9FEF1B
:10204000C91AD90ACA0CDB1CF60182916F01B701CB
:1020500090E00E94C710AC14BD04B1F74FCF60816F
:102060007181072E000C880B990B0E5F1F4F92CFCA
:10207000D32CE894D4F82AE030E0853739F1232DC9
:10208000297FD22E8F3601F148F48835A9F0F70167
:10209000868197812B96E2E10C94860E803749F079
:1020A0008837A9F7D4FE02C06894D2F820E130E066
:1020B0000DC06894D4F8F6CF34FE03C0822F86603A
:1020C000D82E20E132E002C028E030E0F801D7FE4F
:1020D0000FC060817181828193810C5F1F4FA501C8
:1020E0000E94F710C82ECA183D2CE89437F867CF25
:1020F0006081718190E080E00E5F1F4FF0CF42FC65
:1021000002C0839478CF8394839475CF842D86788E
:1021100009F471CFF6CFB70180E290E00E94C710BA
:1021200083948214C0F3512C73CF522C581882140C
:1021300008F46ECFF8CF842D867809F47BCF8BE23C
:1021400041FE80E247FC8DE2B70190E071CFB7011C
:1021500080E390E00E94C7109A946CCF8FEF9FEFBE
:1021600099CFFC010590615070400110D8F780951F
:1021700090958E0F9F1F0895FC0161507040019053
:102180000110D8F7809590958E0F9F1F08950F939B
:102190001F93CF93DF93182F092FEB018B8181FDC4
:1021A00009C01FEF0FEF812F902FDF91CF911F916B
:1021B0000F91089582FF14C02E813F818C819D81F3
:1021C000281739073CF4E881F981CF0101969983FA
:1021D000888310838E819F8101969F838E83E3CFB6
:1021E000E885F985812F0995892BA1F3DACFFA01CA
:1021F000AA27283051F1203181F1E8946F936E7F46
:102200006E5F7F4F8F4F9F4FAF4FB1E03ED0B4E036
:102210003CD0670F781F891F9A1FA11D680F791F77
:102220008A1F911DA11D6A0F711D811D911DA11D88
:1022300020D009F468943F912AE0269F1124301998
:10224000305D3193DEF6CF010895462F4770405D33
:102250004193B3E00FD0C9F7F6CF462F4F70405DE2
:102260004A3318F0495D31FD4052419302D0A9F73D
:10227000EACFB4E0A6959795879577956795BA9537
:10228000C9F700976105710508959B01AC010A2EFD
:1022900006945795479537952795BA95C9F7620FD4
:1022A000731F841F951FA01D0895F894FFCFFFFF93
:1022B000FFFF00E100000000000000C1808100007D
:1022C00000000000007D04DE030B04C9043C041A76
:1022D000042E04000000006E05E9048F058405D576
:1022E000059305B10520000D0A002D2D2053544102
:1022F000545553002D2D204A4F494E006F6E006FEC
:102300006666003030303030303030303030303091
:102310003030300043333046313731354446413672
:1023200042394632314332444342303741433635F5
:10233000464630300030203600256C7500302035A0
:0623400000310061000005
:1070000055C000006EC000006CC000006AC00000E7
:1070100068C0000066C0000064C0000062C00000DC
:1070200060C000005EC00000FCC400005AC0000048
:1070300058C0000056C0000054C0000052C00000FC
:1070400050C000005DC000004CC000004AC00000FD
:1070500048C0000046C0000044C0000042C000001C
:1070600040C000003EC000003CC000003AC000002C
:1070700038C0000036C0000034C0000032C000003C
:1070800030C000002EC000002CC000002AC000004C
:1070900028C0000026C0000024C0000022C000005C
:1070A00020C000001EC000001CC0000011241FBE34
:1070B000CFEFDAE0DEBFCDBF11E0A0E0B1E0E2E467
:1070C000FFE702C005900D92A43BB107D9F711E08C
:1070D000A4EBB1E001C01D92AD3CB107E1F74FD385
:1070E0002EC78ECFF89410926F001092810081E02D
:1070F00085BF15BE47985D9A289A0C9400000895A4
:107100001F920F920FB60F9211242F938F939F937C
:10711000EF93FF9310928500109284008091B40148
:107120009091B501009741F001979093B50180933C
:10713000B401892B09F45D9A8091B6019091B70151
:10714000009741F001979093B7018093B601892B86
:1071500009F4289A8091BA019091BB01019690930D
:10716000BB018093BA01E0E0F0E0859194918F5FDC
:107170009F4F49F08091B8019091B9010196909389
:10718000B9018093B801FF91EF919F918F912F9159
:107190000F900FBE0F901F90189584E08093E90028
:1071A0000DC08091E8008B778093E80003C08EB318
:1071B000882351F08091E80082FFF9CF8091E800A8
:1071C00085FFEFCF8091F1000895982F83E08093A1
:1071D000E9008091E80085FD0DC08091E8008E7780
:1071E0008093E80003C08EB3882369F08091E800A3
:1071F00080FFF9CF9093F1005D9884E690E0909342
:10720000B5018093B40108954F925F926F927F927F
:107210008F929F92AF92BF92CF92DF92EF92FF92A6
:107220000F931F93CF93DF9384E08093E9008091C5
:10723000E80082FF57C2289884E690E09093B70157
:107240008093B601AADF182F853481F48CEA9DE083
:107250009093B9018093B80107B600FCFDCFF9996E
:10726000FECF81E180935700E89503C0843519F47F
:1072700094DF8DE00DC28C34E1F38035D1F3843797
:1072800021F484E4A2DF80E003C2813611F489E5B1
:10729000FFC18134B1F481DF182F7FDF90E0880FC8
:1072A000991FAA2797FDA095BA2F312F330F20E001
:1072B000442737FD4095542F822B932BA42BB52BBD
:1072C000B8C1803711F483E5E3C1833549F4C0E0E8
:1072D000D1E089917ADF21E0C730D207D1F7D9C157
:1072E000863521F481E371DF80E3D2C1833731F445
:1072F00087E86BDF85E969DF8EE1CAC18536B9F4BD
:10730000E0E0F0E093E085E090935700E89507B661
:1073100000FCFDCF80935700E89507B600FCFDCF39
:10732000E058FF4FA0E7E030FA0771F7A2CF8237AD
:1073300039F4E1E0F0E089E0809357008491A8C13E
:10734000863439F4E0E0F0E089E0809357008491DE
:107350009FC18E3439F4E3E0F0E089E08093570078
:10736000849196C1813539F4E2E0F0E089E08093C0
:10737000570084918DC1823631F489E526DF80E0A3
:1073800024DF80E885C1823419F0873609F0E5C032
:107390001092B9011092B80100DF082FFEDEF82E1E
:1073A000FCDE682E8554823008F071C1902F80E099
:1073B000CF2DD0E0C82BD92B10926F00173609F0D3
:1073C0004BC081E180935700E895DD24CC24C39421
:1073D0003FC0E090BD01F090BE010091BF0110914F
:1073E000C001B6E46B16D9F4ED2DF0E0EE29FF29CB
:1073F000E4918E2FEADEDD2081F082E090E0A0E0D3
:10740000B0E0E80EF91E0A1F1B1FE092BD01F092CA
:10741000BE010093BF011093C001DC2418C0D80145
:10742000C701B695A7959795879573D5CEDE82E06F
:1074300090E0A0E0B0E0E80EF91E0A1F1B1FE092EA
:10744000BD01F092BE010093BF011093C0012197CE
:10745000209709F0BECF7DC08090BD019090BE0105
:10746000A090BF01B090C00196E4691609F05DC01C
:1074700083E0F40180935700E89507B600FCFDCF48
:1074800054C0F6E46F1661F5772031F1E090BD014C
:10749000F090BE010091BF011091C0017EDED82E98
:1074A000CC24852D90E08C299D29F7010C01409278
:1074B0005700E895112482E090E0A0E0B0E0E80EEB
:1074C000F91E0A1F1B1FE092BD01F092BE0100933E
:1074D000BF011093C00102C060DE582E742423C087
:1074E000E090BD01F090BE010091BF011091C0017C
:1074F00016950795F794E79450DE682FC70111D5CC
:107500008091BD019091BE01A091BF01B091C001D9
:107510000296A11DB11D8093BD019093BE01A09361
:10752000BF01B093C001219704C05524772444249F
:107530004394209709F0A5CF96E4691641F485E0BD
:10754000F40180935700E89507B600FCFDCF8DE06D
:107550003CDE82E080936F009CC0833471F4009124
:10756000BD011091BE0119DE90E021E0F8010C018F
:1075700020935700E89511247CCE833619F5E090CE
:10758000BD01F090BE010091BF011091C00105DE68
:10759000F701E16090E021E00C0120935700E895AD
:1075A000112482E090E0A0E0B0E0E80EF91E0A1F8E
:1075B0001B1FE092BD01F092BE010093BF0110932A
:1075C000C00157CE8D3661F4E091BD01F091BE014E
:1075D00085E080935700E89507B600FCFDCF49CEC3
:1075E000823551F4E091BD01F091BE0105911491F5
:1075F000812FEBDD802F4CC0843421F5E090BD015C
:10760000F090BE010091BF011091C0011695079541
:10761000F794E794C2DD682FC70183D48091BD0140
:107620009091BE01A091BF01B091C0010296A11D31
:10763000B11D8093BD019093BE01A093BF01B09393
:10764000C00117CE843609F5E090BD01F090BE016F
:107650000091BF011091C001D801C701B695A7954F
:107660009795879556D4B1DD82E090E0A0E0B0E038
:10767000E80EF91E0A1F1B1FE092BD01F092BE0129
:107680000093BF011093C00104C08B3111F08FE350
:107690009CDD83E08093E9009091E8008091E80010
:1076A0008E778093E80095FF04C010C08EB38823C6
:1076B000C9F08091E80080FFF9CF8091E8008E77D3
:1076C0008093E80003C08EB3882361F08091E800C6
:1076D00080FFF9CF84E08093E9008091E8008B7708
:1076E0008093E800DF91CF911F910F91FF90EF9071
:1076F000DF90CF90BF90AF909F908F907F906F90D2
:107700005F904F9008959091C501892F8F778132B6
:1077100049F58091C6018032A1F0813219F5913A84
:1077200009F58091E800877F8093E8008CE091E084
:1077300067E070E025D28091E8008B778093E800C5
:107740000895913279F48091E800877F8093E80072
:107750008CE091E067E070E077D28091E8008E776E
:107760008093E800089582E061EC42E0D1D083E0AC
:1077700061E842E1CDD084E060E842E1C9C01F93F6
:10778000209100081092000844B714BE88E10FB69B
:10779000F89480936000109260000FBE80E8E0E0F3
:1077A000F0E00FB6F89480936100E09361000FBEA3
:1077B00031E035BF92E095BF3F9A209A559A809369
:1077C00061001092610047985D9A289A1092890092
:1077D0008AEF8093880090936F0083E0809381000C
:1077E000859194918F5F9F4F11F03093BC01942F3E
:1077F00041FF19C0809109012817A9F08093000862
:10780000789480911301882339F08091BA01909186
:10781000BB0188579140C8F3F8941092000881E0AA
:10782000809313010CC090FF04C08091BC01882399
:1078300051F493FF09C080910901281729F0809124
:10784000BC01882309F04EDCD4D078941092B901A1
:107850001092B8011EEF20C0D7DC49D38091B80147
:107860009091B901815A9F4010F0109213018091BC
:10787000C1019091C20101969093C2018093C10110
:10788000292F97FF03C0512F591B252F220F28178F
:1078900010F4479801C0479A809113018823E1F6BC
:1078A0008091E00081608093E0001CDC80E090E04B
:1078B0001F910895FA01923049F0933061F09130B0
:1078C000F9F484E191E022E130E01EC086E291E02B
:1078D0002EE330E019C0882329F484E691E024E007
:1078E00030E012C0813029F488E691E02EE130E0EA
:1078F0000BC0823029F488E891E02AE230E004C02D
:1079000080E090E020E030E091838083C901089519
:107910008093E9008091EB0081608093EB001092EE
:10792000ED006093EC004093ED008091EE00881F25
:107930008827881F08958091C50188238CF403C08F
:107940008EB38823B1F08091E80082FFF9CF809157
:10795000E8008B778093E80008958EB3882349F080
:107960008091E80080FFF9CF8091E8008E778093C6
:10797000E8000895EF92FF920F931F9345D04CD0EB
:1079800008ED10E0F80180818F7780838081806826
:10799000808380818F7D808319BC1EBA1092C301C1
:1079A00080EEE82EF12CF70180818B7F8083F80137
:1079B00080818160808380E060E042E0A9DFE1EEC9
:1079C000F0E080818E7F8083E2EEF0E08081816054
:1079D0008083808188608083F70180818E7F8083AF
:1079E000F8018081806180831F910F91FF90EF905B
:1079F0000895E7EDF0E08081816080838AE482BFB2
:107A000081E08093C401B6CFE8EDF0E080818E7F05
:107A100080831092E20008951092DA001092E10043
:107A200008951F920F920FB60F9211242F933F9338
:107A30004F935F936F937F938F939F93AF93BF9376
:107A4000EF93FF938091DA0080FF1AC08091D800F5
:107A500080FF16C08091DA008E7F8093DA008091DB
:107A6000D90080FF0AC019BC82E089BD09B400FEBC
:107A7000FDCF81E08EBB3AD203C019BC1EBA36D20C
:107A80008091E10080FF17C08091E20080FF13C069
:107A90008091E2008E7F8093E2008091E20080611D
:107AA0008093E2008091D80080628093D80019BC56
:107AB00085E08EBB1BD28091E10084FF2BC08091BA
:107AC000E20084FF27C019BC82E089BD09B400FE32
:107AD000FDCF8091D8008F7D8093D8008091E10008
:107AE0008F7E8093E1008091E2008F7E8093E200A0
:107AF0008091E20081608093E2008091C30188233D
:107B000031F48091E30087FD02C081E001C084E090
:107B10008EBBECD18091E10083FF21C08091E20017
:107B200083FF1DC08091E100877F8093E10082E0A8
:107B30008EBB1092C3018091E1008E7F8093E100A3
:107B40008091E2008E7F8093E2008091E20080616C
:107B50008093E20080E060E042E0DADEC7D1FF918E
:107B6000EF91BF91AF919F918F917F916F915F91B5
:107B70004F913F912F910F900FBE0F901F9018952E
:107B80009C014091CB015091CC014617570718F446
:107B9000F90190E044C06115710511F0AB01F8CF17
:107BA0008091E8008E778093E80040E050E0F0CFCD
:107BB0008EB3882309F444C0853009F443C0809112
:107BC000E80083FF02C081E008958091E80082FD13
:107BD00031C08091E80080FF22C08091F300909135
:107BE000F200782F60E0292F30E0262B372B07C0DA
:107BF00081918093F100415050402F5F3F4F4115DC
:107C0000510519F02830310598F390E028303105FE
:107C100009F491E08091E8008E778093E8004115A7
:107C2000510531F6992321F605C08EB3882341F022
:107C3000853041F08091E80082FFF7CF80E0089521
:107C400082E0089583E008959C016115710529F48F
:107C50008091E8008B778093E800F90126C08EB30D
:107C6000882391F1853091F18091E80083FF02C073
:107C700081E008958091E80082FFF1CF06C08091F5
:107C8000F10081936150704059F02091F300809190
:107C9000F200322F20E090E0822B932B892B79F792
:107CA0008091E8008B778093E80061157105B9F643
:107CB00005C08EB3882341F0853041F08091E80003
:107CC00080FFF7CF80E0089582E0089583E0089573
:107CD0000F931F93DF93CF9300D0CDB7DEB7E5ECC2
:107CE000F1E08091F100819381E0ED3CF807C9F764
:107CF0000ADD8091E80083FFE4C08091C501909186
:107D0000C601953009F46DC0963040F4913081F190
:107D1000913070F0933009F0D4C02AC0983009F443
:107D2000A3C0993009F4B2C0963009F0CAC07CC033
:107D3000803809F4C6C0823809F0C3C08091C901F7
:107D400087708093E9008091EB001092E900209108
:107D5000E800277F2093E80090E025E0969587953E
:107D60002A95E1F781708093F1001092F10087C0AD
:107D7000882319F0823009F0A4C08F71823009F095
:107D8000A0C08091C701882331F52091C9012770D7
:107D900009F497C02093E9008091EB0080FF1BC09D
:107DA000933021F48091EB00806213C08091EB004E
:107DB00080618093EB0081E090E002C0880F991F02
:107DC0002A95E2F78093EA001092EA008091EB0096
:107DD00088608093EB001092E9008091E800877F33
:107DE00051C0882309F06DC01091C7011F770FB7EC
:107DF000F8948091E800877F8093E8009CDD809173
:107E0000E80080FFFCCF8091E3008078812B809395
:107E1000E30080688093E300112311F482E001C045
:107E200083E08EBB0FBF4DC08058823008F049C040
:107E30008091C7019091C8016091C901AE014F5F67
:107E40005F4F38DDBC01009709F43BC08091E8002A
:107E5000877F8093E80089819A8192DE8091E80093
:107E60008B778093E8002DC0803859F58091E80029
:107E7000877F8093E8008091C3018093F100809117
:107E8000E8008E778093E80056DD1BC08823C9F494
:107E90009091C7019230A8F48091E800877F809389
:107EA000E8009093C30147DD8091C301882331F43A
:107EB0008091E30087FD02C081E001C084E08EBBB9
:107EC00052DC8091E80083FF0AC08091EB00806261
:107ED0008093EB008091E800877F8093E8000F900B
:107EE0000F90CF91DF911F910F91089508951F93E7
:107EF0008EB3882361F01091E9001092E90080911F
:107F0000E80083FF01C0E4DE17701093E9001F91C1
:107F10000895F999FECF92BD81BDF89A992780B551
:107F20000895262FF999FECF1FBA92BD81BD20BDBD
:107F30000FB6F894FA9AF99A0FBE01960895F8943C
:107F4000FFCF4341544552494E410077000800009D
:107F500000000000080112011001020000084F1B80
:107F6000039201000201000109023E0002010080AB
:107F7000320904000001020201000524001001047E
:107F80002402040524060001070582030800FF09F6
:107F9000040100020A0000000705040210000107A6
:107FA000058302100001040309041E03500072003F
:107FB0006F0020004D006900630072006F00200018
:107FC00033002E003300560000002A0353007000D7
:107FD000610072006B00460075006E0020004500D5
:107FE0006C0065006300740072006F006E00690031
:067FF000630073000000B5
:00000001FF
